01REMESSA01COBRANCA       00000000000000000111Dealwish                      237BRADESCO       270119        MX0000067                                                                                                                                                                                                                                                                                     000001
1                   0019002370023829500000000000000000000000460000000000000000046P00000000001               01000000000005111800000000050000000000001N270119000000000000000002701190000000000000000000000000000000000000000233341089000109Magazine Luiza                          Rua Werner Goldberg, 179 - Barueri1/SP              06414025                                                            000002
1                   0019002370023829500000000000000000000000470000000000000000047800000000001               01000000000010111800000000250000000000001N270119000000000000000002701190000000000000000000000000000000000000000273344783000102Fast Shop                               endereço 2, 2 - Monte Alto63/SP                     06414025                                                            000003
9                                                                                                                                                                                                                                                                                                                                                                                                         000004
